:020000040800F2
:100000000409002089010008F9010008F90100082D
:10001000F9010008F9010008F901000800000000DA
:10002000000000000000000000000000F9010008CE
:10003000F901000800000000F9010008451D000852
:10004000F9010008F9010008F9010008F9010008A8
:10005000F9010008F9010008F9010008F901000898
:10006000F9010008F9010008F9010008F901000888
:10007000F9010008F9010008F9010008F901000878
:10008000F9010008F9010008F9010008F901000868
:10009000F9010008F9010008F9010008F901000858
:1000A000F9010008F9010008F9010008F901000848
:1000B000F90100088D1D000809050008F901000874
:1000C000F9010008F9010008F9010008F901000828
:1000D000F9010008F9010008F9010008F901000818
:1000E000F9010008F9010008F9010008F901000808
:1000F000F9010008F9010008F9010008F9010008F8
:10010000F9010008F9010008F9010008F9010008E7
:10011000F9010008F9010008F9010008F9010008D7
:10012000F9010008F9010008F9010008F9010008C7
:10013000F9010008F9010008F9010008F9010008B7
:10014000F9010008F9010008F9010008F9010008A7
:10015000F9010008F9010008F9010008F901000897
:10016000F9010008F9010008F9010008F901000887
:10017000F9010008F9010008F9010008F901000877
:10018000F9010008F901000880B582B000AF42F61D
:10019000E453C0F600037B6040F20003C2F20003A8
:1001A0003B600BE07B681A683B681A603B6803F1B0
:1001B00004033B607B6803F104037B603A6840F210
:1001C0005003C2F200039A42ECD3094809494FF0A8
:1001D00000028842B8BF40F8042BFFF6FAAF02F0E5
:1001E000AFF900F089F807F10807BD4680BD0000AF
:1001F000500000200801002080B400AFFEE700BFDF
:1002000080B483B000AF0346FB714FF46143CEF27C
:10021000000397F907204FEA5212F97901F01F0104
:100220004FF0010000FA01F143F8221007F10C072A
:10023000BD4680BC704700BF80B483B000AF0346AA
:100240003960FB7197F90730002B10DA4FF46D43DA
:10025000CEF20003FA7902F00F02A2F104013A682B
:10026000D2B24FEA0212D2B25B181A760DE04FF406
:100270006143CEF2000397F907103A68D2B24FEA11
:100280000212D2B25B1883F8002307F10C07BD46B7
:1002900080BC704780B582B000AF78607A686FF03C
:1002A0007F439A4202D94FF001031FE04EF2100340
:1002B000CEF200037A6822F07F4202F1FF325A60E8
:1002C0004FF0FF304FF00F01FFF7B6FF4EF2100373
:1002D000CEF200034FF000029A604EF21003CEF20D
:1002E00000034FF007021A604FF00003184607F1B1
:1002F0000807BD4680BD00BF80B584B000AF4FF495
:100300006D43CEF200034FF46D42CEF20002D2F8FC
:10031000882042F47002C3F8882002F05BF940F2B2
:100320003C03C2F200031A684DF68363C4F21B3328
:10033000A3FB02134FEA93431846FFF7ABFF00F00D
:10034000A7FD00F0FFFD01F02FF84FF46053C4F259
:1003500002034FF46052C4F20202126A22F48002D5
:100360001A6200F079FE00F0D1FE00F00FFF00F0FD
:1003700033FF01F075FA01F01FF942F6D450C0F6D0
:10038000000001F08FF840F6B83001F0A7FC40F211
:10039000D803C2F200034FF000021A6040F28C034F
:1003A000C2F200034FF000021A6040F2FC03C2F2F6
:1003B00000034FF000021A6040F28803C2F200030B
:1003C0004FF000021A6040F2D803C2F2000318682E
:1003D00040F28C03C2F20003196840F2FC03C2F23F
:1003E00000031A6840F28803C2F200031B6801F0A0
:1003F00049FC41F2883001F071FC40F2D403C2F2B2
:1004000000031A6840F2C803C2F200031A6040F207
:100410007803C2F200031A6840F2E403C2F2000358
:100420001A6040F28A2040F28A2140F28A2240F289
:100430008A2301F027FC4FF0C80001F04FFC4FF079
:1004400000004FF000014FF000024FF0000301F0F8
:1004500019FC4FF0C80001F041FC40F28A2040F244
:100460008A2140F28A2240F28A2301F00BFC4FF0ED
:10047000C80001F033FC4FF000004FF000014FF0D6
:1004800000024FF0000301F0FDFB4FF0C80001F047
:1004900025FC40F28A2040F28A2140F28A2240F272
:1004A0008A2301F0EFFB4FF0C80001F017FC4FF07A
:1004B00000004FF000014FF000024FF0000301F088
:1004C000E1FB4FF0C80001F009FC40F25403C2F216
:1004D00000034FF001021A6040F2E003C2F2000391
:1004E0001B683A46104642F6DC51C0F600011A4637
:1004F00002F00EF83B46184600F0D4FF4FF4967019
:1005000001F0ECFBE8E700BFB0B584B000AF4FF4FA
:100510000063C4F200031B8A9BB203F00103002BAB
:1005200000F0B2844FF40063C4F200034FF40062A1
:10053000C4F20002128A92B222F0010292B21A822E
:1005400040F25403C2F200031B68012B40F09C846C
:1005500040F20003C2F200031B68042B07D140F2F3
:100560000003C2F200034FF001021A600BE040F2F8
:100570000003C2F200031B6803F1010240F2000312
:10058000C2F200031A6040F21C03C2F200031B68AF
:10059000012B2FD140F2D400C2F2000040F27801CA
:1005A000C2F2000140F20012C2F2000201F0CAF9E8
:1005B00040F28400C2F2000040F2A801C2F2000141
:1005C00040F2D002C2F2000201F056FA40F2D40327
:1005D000C2F200031B68FB6040F27803C2F2000322
:1005E0001B68BB6040F21C03C2F200034FF0000224
:1005F0001A6019E040F2D403C2F200031B68FB60EA
:1006000040F27803C2F200031B68BB6040F2D400E2
:10061000C2F2000040F27801C2F2000140F2001282
:10062000C2F2000201F08EF940F28400C2F2000032
:1006300040F2A801C2F2000140F2D002C2F2000270
:1006400001F01AFA40F20C03C2F200031B68FA68C8
:1006500002FB03F240F2AC03C2F200031A6040F264
:100660000C03C2F200031A6840F20403C2F2000352
:100670001B6803FB02F240F20C03C2F200031B688A
:1006800003FB02F240F21003C2F200031B68D2180F
:1006900040F2B403C2F200031A6040F21403C2F243
:1006A00000031A6840F2B403C2F200031B6803FBA4
:1006B00002F3184602F0C4F9044640F21403C2F2F1
:1006C00000031B68184602F0BBF9054640F214030C
:1006D000C2F200031B68184602F0B2F9034628462E
:1006E000194602F001FA03461D4640F2B403C2F275
:1006F00000031B68184602F0A3F903462846194672
:1007000002F0F2F903461D4640F21803C2F200035C
:100710001B68184602F094F903462846194602F071
:10072000DBF803462046194602F092FA03467B6046
:1007300040F2AC03C2F200031B68184602F080F9D5
:10074000044640F2D403C2F200031A6840F21403D4
:10075000C2F20003196840F2AC03C2F200031B6846
:1007600003FB01F3D31A184602F06AF90346184650
:10077000796802F0B9F903462046194602F0ACF850
:100780000346184602F000FB024640F2D403C2F2D0
:1007900000031A6040F21403C2F200031B681846FB
:1007A00002F04EF903461846796802F09DF90346B7
:1007B0004FF07E50194602F08DF80346184602F0BD
:1007C000E3FA024640F2B403C2F200031B6803FBE3
:1007D00002F240F20403C2F200031A6040F20C037A
:1007E000C2F200031B68BA6802FB03F240F2A403E2
:1007F000C2F200031A6040F20C03C2F200031A684E
:1008000040F20803C2F200031B6803FB02F240F24D
:100810000C03C2F200031B6803FB02F240F2100358
:10082000C2F200031B68D21840F2CC03C2F20003EC
:100830001A6040F21403C2F200031A6840F2CC03BB
:10084000C2F200031B6803FB02F3184602F0F8F83B
:10085000044640F21403C2F200031B68184602F07B
:10086000EFF8054640F21403C2F200031B68184675
:1008700002F0E6F803462846194602F035F9034629
:100880001D4640F2CC03C2F200031B68184602F07A
:10089000D7F803462846194602F026F903461D46B6
:1008A00040F21803C2F200031B68184602F0C8F8B1
:1008B00003462846194602F00FF80346204619461B
:1008C00002F0C6F903467B6040F2A403C2F20003C3
:1008D0001B68184602F0B4F8044640F27803C2F2EE
:1008E00000031A6840F21403C2F20003196840F2D0
:1008F000A403C2F200031B6803FB01F3D31A1846DA
:1009000002F09EF803461846796802F0EDF80346B7
:100910002046194601F0E0FF0346184602F034FA7B
:10092000024640F27803C2F200031A6040F2140358
:10093000C2F200031B68184602F082F8034618460C
:10094000796802F0D1F803464FF07E50194601F065
:10095000C1FF0346184602F017FA024640F2CC03E4
:10096000C2F200031B6803FB02F240F20803C2F26A
:1009700000031A6040F26003C2F200031A6840F2FA
:100980006403C2F200031B68D31A3B6040F2D40335
:10099000C2F200031B68002BB8BF5B42184602F08E
:1009A0004FF8024640F22403C2F200031B681046CF
:1009B000194602F099F803461C4640F2D403C2F2ED
:1009C00000031B6883EAE372A2EBE372FB68D318AF
:1009D000184602F035F8024640F22803C2F200033E
:1009E0001B681046194602F07FF803461D4638681A
:1009F00002F026F803462846194602F075F8034629
:100A000018464FF41051C4F6741102F021F9034650
:100A10002046194601F060FF03461C4640F2D4030D
:100A2000C2F200031B6883EAE372A2EBE372FB6885
:100A3000D31A184602F004F8024640F22C03C2F220
:100A400000031B681046194602F04EF8034618468C
:100A500049F28061C4F6183102F046F803461D469B
:100A6000386801F0EDFF03462846194602F0F0F819
:100A700003462046194601F02FFF0346184602F0B0
:100A800083F9024640F2DC03C2F200031A6040F22E
:100A90007803C2F200031B68002BB8BF5B42184604
:100AA00001F0CEFF024640F22403C2F200031B68AD
:100AB0001046194602F018F803461C4640F2780327
:100AC000C2F200031B6883EAE372A2EBE372BB6825
:100AD000D318184601F0B4FF024640F22803C2F2D0
:100AE00000031B681046194601F0FEFF03461D4631
:100AF000386801F0A5FF03462846194601F0F4FFC7
:100B0000034618464FF41051C4F6741102F0A0F8D1
:100B100003462046194601F0DFFE03461C4640F21C
:100B20007803C2F200031B6883EAE372A2EBE3726C
:100B3000BB68D31A184601F083FF024640F22C032B
:100B4000C2F200031B681046194601F0CDFF0346B0
:100B5000184649F28061C4F6183101F0C5FF03461A
:100B60001D46386801F06CFF03462846194602F01E
:100B70006FF803462046194601F0AEFE03461846BC
:100B800002F002F9024640F2BC03C2F200031A600E
:100B900040F26003C2F200031A6840F26403C2F23A
:100BA00000031A6040F20003C2F200031B68042B2A
:100BB00040F0C98040F26003C2F200031A6840F2BC
:100BC0006803C2F200031B68D31A3B6040F2500373
:100BD000C2F200031A6840F2E003C2F200031A6096
:100BE00000F086FC024640F25003C2F200031A6095
:100BF00040F25003C2F200031A684FF6FF739A42A4
:100C000009D140F2E003C2F200031A6840F2500337
:100C1000C2F200031A6040F22003C2F200031A6815
:100C200040F25003C2F200031B68D21A40F2500394
:100C3000C2F200031A6040F25003C2F200031B68C4
:100C4000184601F0FDFE024640F23003C2F20003F6
:100C50001B681046194601F047FF03461C4640F248
:100C60005003C2F200031A6840F2E003C2F200032C
:100C70001B68D318184601F0E3FE024640F2340325
:100C8000C2F200031B681046194601F02DFF03460F
:100C90001D46386801F0D4FE03462846194601F087
:100CA00023FF034618464FF41051C4F6741101F0A7
:100CB000CFFF03462046194601F00EFE03461C46B0
:100CC00040F25003C2F200031A6840F2E003C2F29D
:100CD00000031B68D31A184601F0B2FE024640F228
:100CE0003803C2F200031B681046194601F0FCFEEF
:100CF0000346184649F28061C4F6183101F0F4FE4B
:100D000003461D46386801F09BFE034628461946F7
:100D100001F09EFF03462046194601F0DDFD034623
:100D2000184602F031F8024640F27C03C2F200039A
:100D30001A6040F26003C2F200031A6840F26803CE
:100D4000C2F200031A6040F25C03C2F200034FF4E7
:100D5000E1721A6040F25C03C2F200031A6840F2CA
:100D6000D803C2F200031A6040F2D403C2F20003B7
:100D70001B68002B0FDD40F2D803C2F200031A6893
:100D800040F2DC03C2F200031B68D21840F2D80321
:100D9000C2F200031A6040F25C03C2F200031A6858
:100DA00040F28C03C2F200031A6040F27803C2F2F0
:100DB00000031B68002B0FDD40F28C03C2F200031E
:100DC0001A6840F2BC03C2F200031B68D21840F25A
:100DD0008C03C2F200031A6040F25C03C2F200030B
:100DE0001A6840F2FC03C2F200031A6040F2780372
:100DF000C2F200031B68002B0FDA40F2FC03C2F2C0
:100E000000031A6840F2BC03C2F200031B68D21848
:100E100040F2FC03C2F200031A6040F25C03C2F22B
:100E200000031A6840F28803C2F200031A6040F21D
:100E3000D403C2F200031B68002B0FDA40F28803D0
:100E4000C2F200031A6840F2DC03C2F200031B681E
:100E5000D21840F28803C2F200031A6040F2D803AD
:100E6000C2F20003186840F28C03C2F20003196852
:100E700040F2FC03C2F200031A6840F28803C2F297
:100E800000031B6800F0FEFE07F11007BD46B0BD71
:100E900080B400AF4FF46053C4F202034FF46052C9
:100EA000C4F20202126B42F008021A634FF460535C
:100EB000C4F202034FF46052C4F20202126B42F019
:100EC00002021A634FF46053C4F202034FF46052FB
:100ED000C4F20202126B42F001021A634FF4605333
:100EE000C4F202034FF46052C4F20202126C42F0E8
:100EF00002021A644FF46053C4F202034FF46052CA
:100F0000C4F20202126C42F004021A644FF46053FD
:100F1000C4F202034FF46052C4F20202126C42F4B3
:100F200080021A644FF46053C4F202034FF460521B
:100F3000C4F20202126C42F400321A64BD4680BC54
:100F4000704700BF80B400AF4FF44063C4F20203A7
:100F50004FF05502C5F250521A604FF44063C4F28C
:100F600002034FF000025A604FF44063C4F20203E0
:100F70004FF000029A604FF44063C4F202034FF056
:100F80000002DA604FF44063C4F202034FF440629F
:100F90005A614FF48063C4F202034FF420021A60D6
:100FA0004FF48063C4F202034FF48062C4F2020281
:100FB000526842F440625A604FF48063C4F2020304
:100FC0004FF000029A604FF48063C4F202034FF0C6
:100FD0000002DA604FF48063C4F202034FF48062CF
:100FE000C4F20202526A42F488425A624FF000038D
:100FF000C4F202034FF00002C4F20202126842F08F
:10100000A0021A604FF00003C4F202034FF0000286
:10101000C4F2020252685A604FF00003C4F20203A5
:101020004FF000029A604FF00003C4F202034FF049
:101030000002C4F20202D268DA604FF00003C4F288
:1010400002034FF00002C4F20202126A42F4EE42BE
:101050001A62BD4680BC704780B400AF4FF4806315
:10106000C4F2000349F64042DA624FF48063C4F2EE
:1010700000034FF028021A854FF48063C4F2000386
:101080004FF48062C4F20002928992B242F01F02D1
:1010900092B29A814FF48063C4F200034FF48062ED
:1010A000C4F20002128892B242F0810292B21A8017
:1010B0004FF40063C4F2000349F64042DA624FF491
:1010C0000063C4F200034FF064021A854FF400631A
:1010D000C4F200034FF40062C4F20002928992B29B
:1010E00042F0010292B29A814FF40063C4F200030D
:1010F0004FF40062C4F20002128892B242F0810200
:1011000092B21A80BD4680BC704700BF80B400AF69
:101110004FF4B043C4F200034FF4B042C4F20002F3
:10112000928892B242F0280292B29A804FF4B04272
:10113000C4F200024FF4B043C4F200039B8B99B297
:101140004CF20403CFF6FF730B439BB293834FF42F
:10115000B043C4F200034FF4B042C4F20002128C58
:1011600092B242F00D0292B21A844FF4B043C4F22C
:1011700000034FF4B042C4F20002128892B242F06F
:10118000010292B21A80BD4680BC704780B400AFA5
:101190004FF48843C4F200034FF48842C4F20002C3
:1011A000128992B242F4825242F0070292B21A813C
:1011B0004FF48843C4F200034FF48842C4F20002A3
:1011C000928992B242F4005242F00C0292B29A8199
:1011D000BD4680BC704700BF80B500AF4FF01D001A
:1011E0004FF00001FFF728F84FF01E004FF001010B
:1011F000FFF722F84FF01D00FFF702F84FF005004F
:1012000000F06CFD4FF01E00FEF7FAFF80BD00BF3E
:1012100080B582B000AF0346FB714FF44063C4F267
:1012200002034FF44062C4F20202526922F4704297
:101230005A614FF44063C4F202034FF44062C4F2B7
:1012400002025169FA794FEA02324FEA02424FEA4A
:1012500012420A435A614FF44063C4F202034FF44E
:101260004062C4F20202526942F480625A614FF055
:10127000010000F04FFD4FF44063C4F202034FF44D
:101280004062C4F20202526922F480625A614FF055
:10129000280000F03FFD07F10807BD4680BD00BFF4
:1012A00080B582B000AF0346FB714FF44063C4F2D7
:1012B00002034FF44062C4F20202526922F4744203
:1012C0005A614FF44063C4F202034FF44062C4F227
:1012D00002025169FA7902F0F0024FEA02220A434F
:1012E0005A614FF44063C4F202034FF44062C4F207
:1012F0000202526942F480625A614FF0010000F02C
:1013000009FD4FF44063C4F202034FF44062C4F29B
:101310000202526922F480625A614FF0280000F004
:10132000F9FC4FF44063C4F202034FF44062C4F28C
:101330000202526922F470425A614FF44063C4F2CF
:1013400002034FF44062C4F202025169FA794FEA93
:1013500002324FEA02424FEA12420A435A614FF404
:101360004063C4F202034FF44062C4F202025269C5
:1013700042F480625A614FF0010000F0CBFC4FF460
:101380004063C4F202034FF44062C4F202025269A5
:1013900022F480625A614FF0280000F0BBFC07F194
:1013A0000807BD4680BD00BF80B500AF4FF03200DA
:1013B00000F094FC4FF44063C4F202034FF4406227
:1013C000C4F20202526922F400625A614FF440638F
:1013D000C4F202034FF44062C4F20202526922F4E2
:1013E00080625A614FF00300FFF712FF41F2941040
:1013F00000F090FC4FF00300FFF70AFF41F2941059
:1014000000F088FC4FF00300FFF702FF4FF096005A
:1014100000F080FC4FF00200FFF7FAFE4FF02800CA
:10142000FFF73EFF4FF00100FFF73AFF4FF4FA607D
:1014300000F070FC4FF00600FFF732FF4FF00C0099
:10144000FFF72EFF4FF00100FFF72AFF4FF4FA607D
:1014500000F060FC80BD00BF80B582B000AF0346E5
:10146000FB714FF44063C4F202034FF44062C4F2D4
:101470000202526942F400625A61FB791846FFF792
:101480000FFF4FF44063C4F202034FF44062C4F212
:101490000202526922F400625A6107F10807BD4650
:1014A00080BD00BF80B584B000AF78604FF000030E
:1014B000FB604FF00100FFF7F3FE4FF4FA6000F01D
:1014C00029FC0AE0FB687A68D3181B78FA6802F1F5
:1014D0000102FA601846FFF7BFFFFB687A68D3186D
:1014E0001B78002BEED107F11007BD4680BD00BF71
:1014F00080B584B000AF4FF0220000F023F84FF029
:10150000000000F01FF84FF0000000F01BF84FF053
:10151000220000F017F800F037F8F86000F034F817
:10152000B86000F031F8786000F02EF83860BB68E1
:101530004FEA03227B681343184607F11007BD46A4
:1015400080BD00BF80B483B000AF0346FB7100BF15
:101550004FF48843C4F200031B889BB203F080035E
:10156000002BF5D04FF48843C4F200031B884FF4DE
:101570008843C4F20003FA7992B29A8007F10C070B
:10158000BD4680BC704700BF80B400AF00BF4FF4C1
:101590008843C4F200031B889BB203F02003002B96
:1015A000F5D04FF48843C4F200039B889BB21846E1
:1015B000BD4680BC704700BF80B500AF4FF4B0435C
:1015C000C4F200034FF4B042C4F20002128892B297
:1015D00042F4807292B21A8000BF4FF4B043C4F25A
:1015E00000039B8A9BB203F00103002BF5D04FF45C
:1015F000B043C4F200039B8A4FF4B043C4F200032B
:101600004FF082021A8200BF4FF4B043C4F20003CD
:101610009B8A9BB203F00203002BF5D04FF4B0433A
:10162000C4F200039B8A4FF4B043C4F200031B8B47
:101630004FF4B043C4F200034FF00D021A8200BF12
:101640004FF4B043C4F200039B8A9BB203F004033F
:10165000002BF5D000BF4FF4B043C4F200039B8AC7
:101660009BB203F08003002BF5D04FF4B043C4F2DB
:1016700000034FF010021A824FF4B043C4F200038B
:101680004FF4B042C4F20002128892B242F40072E7
:1016900092B21A804FF00A0000F020FB4FF4B043E2
:1016A000C4F200034FF4B042C4F20002128892B2B6
:1016B00042F4807292B21A8000BF4FF4B043C4F279
:1016C00000039B8A9BB203F00103002BF5D04FF47B
:1016D000B043C4F200039B8A4FF4B043C4F200034A
:1016E0004FF082021A8200BF4FF4B043C4F20003ED
:1016F0009B8A9BB203F00203002BF5D04FF4B0435A
:10170000C4F200039B8A4FF4B043C4F200031B8B66
:101710004FF4B043C4F200034FF020021A8200BF1E
:101720004FF4B043C4F200039B8A9BB203F004035E
:10173000002BF5D000BF4FF4B043C4F200039B8AE6
:101740009BB203F08003002BF5D04FF4B043C4F2FA
:1017500000034FF008021A824FF4B043C4F20003B2
:101760004FF4B042C4F20002128892B242F4007206
:1017700092B21A804FF00A0000F0B0FA4FF4B04372
:10178000C4F200034FF4B042C4F20002128892B2D5
:1017900042F4807292B21A8000BF4FF4B043C4F298
:1017A00000039B8A9BB203F00103002BF5D04FF49A
:1017B000B043C4F200039B8A4FF4B043C4F2000369
:1017C0004FF082021A8200BF4FF4B043C4F200030C
:1017D0009B8A9BB203F00203002BF5D04FF4B04379
:1017E000C4F200039B8A4FF4B043C4F200031B8B86
:1017F0004FF4B043C4F200034FF035021A8200BF29
:101800004FF4B043C4F200039B8A9BB203F004037D
:10181000002BF5D000BF4FF4B043C4F200039B8A05
:101820009BB203F08003002BF5D04FF4B043C4F219
:1018300000034FF002021A824FF4B043C4F20003D7
:101840004FF4B042C4F20002128892B242F4007225
:1018500092B21A804FF00A0000F040FA80BD00BF3B
:1018600080B400AF4FF4B043C4F200034FF4B04271
:10187000C4F20002128892B242F4807292B21A80CC
:1018800000BF4FF4B043C4F200039B8A9BB203F045
:101890000103002BF5D04FF4B043C4F200039B8A40
:1018A0004FF4B043C4F200034FF03C021A8200BF71
:1018B0004FF4B043C4F200039B8A9BB203F00203CF
:1018C000002BF5D04FF4B043C4F200039B8A4FF4D1
:1018D000B043C4F200031B8B4FF4B043C4F20003C7
:1018E0004FF002021A8200BF4FF4B043C4F200036B
:1018F0009B8A9BB203F00403002BF5D000BF4FF48A
:10190000B043C4F200039B8A9BB203F08003002B18
:10191000F5D04FF4B043C4F200034FF000021A8236
:101920004FF4B043C4F200034FF4B042C4F20002DB
:10193000128892B242F4007292B21A80BD4680BC04
:10194000704700BF80B586B000AFF860B9607A60BC
:101950004FF041004FF0020100F0D8F838614FF02D
:1019600041004FF0030100F0D1F878617B6903F08A
:101970008003002B0FD07B6903F07C034FEA031236
:101980003B694FEAA3031A434FF60103CFF6FF73F7
:1019900053407B6109E07B6903F07C034FEA03124B
:1019A0003B694FEAA30313437B61FB687A691A60C2
:1019B0004FF041004FF0040100F0A8F838614FF0FB
:1019C00041004FF0050100F0A1F878617B6903F058
:1019D0008003002B0FD07B6903F07C034FEA0312D6
:1019E0003B694FEAA3031A434FF60103CFF6FF7397
:1019F00053407B6109E07B6903F07C034FEA0312EB
:101A00003B694FEAA30313437B61BB687A691A60A1
:101A10004FF041004FF0060100F078F838614FF0C8
:101A200041004FF0070100F071F878617B6903F025
:101A30008003002B0FD07B6903F07C034FEA031275
:101A40003B694FEAA3031A434FF60103CFF6FF7336
:101A500053407B6109E07B6903F07C034FEA03128A
:101A60003B694FEAA30313437B617B687A691A6081
:101A700007F11807BD4680BD80B586B000AFF8609D
:101A8000B9607A604FF01E004FF0030100F03EF89D
:101A900078614FF01E004FF0040100F037F8386114
:101AA0007B694FEA03223B691A43FB681A604FF0D7
:101AB0001E004FF0050100F029F878614FF01E007C
:101AC0004FF0060100F022F838617B694FEA0322EB
:101AD0003B691A43BB681A604FF01E004FF00701C4
:101AE00000F014F878614FF01E004FF0080100F08C
:101AF0000DF838617B694FEA03223B691A437B6822
:101B00001A6007F11807BD4680BD00BF80B485B0DC
:101B100000AF786039604FF4B043C4F200034FF473
:101B2000B042C4F20002128892B242F4807292B2C1
:101B30001A8000BF4FF4B043C4F200039B8A9BB2EB
:101B400003F00103002BF5D04FF4B043C4F20003BF
:101B50009B8A4FF4B043C4F200037A6892B24FEA12
:101B6000420292B21A8200BF4FF4B043C4F20003A3
:101B70009B8A9BB203F00203002BF5D04FF4B043D5
:101B8000C4F200039B8A4FF4B043C4F200031B8BE2
:101B90004FF4B043C4F200033A6892B21A8200BF15
:101BA0004FF4B043C4F200039B8A9BB203F00403DA
:101BB000002BF5D04FF4B043C4F200034FF4B04211
:101BC000C4F20002128892B242F4807292B21A8079
:101BD00000BF4FF4B043C4F200039B8A9BB203F0F2
:101BE0000103002BF5D04FF4B043C4F200039B8AED
:101BF0004FF4B043C4F200037A684FEA420292B253
:101C000042F0010292B292B21A8200BF4FF4B04386
:101C1000C4F200039B8A9BB203F00203002BF5D0B1
:101C20004FF4B043C4F200039B8A4FF4B043C4F2B4
:101C300000031B8B00BF4FF4B043C4F200039B8A28
:101C40009BB203F04003002BF5D04FF4B043C4F235
:101C500000031B8A9BB2FB604FF4B043C4F2000345
:101C60004FF4B042C4F20002128892B242F4007201
:101C700092B21A80FB68184607F11407BD4680BC73
:101C8000704700BF80B485B000AFF860B9607A607B
:101C90003B604FF48063C4F20003FA6802F2DC5246
:101CA0005A634FF48063C4F200037A6802F2DC5294
:101CB0009A634FF48063C4F20003BA6802F2DC5204
:101CC000DA634FF48063C4F200033A6802F2DC5234
:101CD0001A6407F11407BD4680BC704780B483B016
:101CE00000AF78607B684FF47A7202FB03F31A4608
:101CF00040F29803C2F200031A6000BF40F298035A
:101D0000C2F200031B68002BF8D107F10C07BD4697
:101D100080BC704780B483B000AF78607B681A469F
:101D200040F29803C2F200031A6000BF40F2980329
:101D3000C2F200031B68002BF8D107F10C07BD4667
:101D400080BC704780B400AF40F26003C2F2000371
:101D50001B6803F1010240F26003C2F200031A6043
:101D600040F29803C2F200031B68002B0BD040F234
:101D70009803C2F200031B6803F1FF3240F298039C
:101D8000C2F200031A60BD4680BC704780B400AF49
:101D90004FF48063C4F200031B8A9BB203F010036C
:101DA000002B1AD04FF48063C4F200034FF480621A
:101DB000C4F20002128A92B222F0100292B21A8287
:101DC0004FF44063C4F202034FF44062C4F20202D3
:101DD00051694FF6F7720A405A614FF48063C4F2BA
:101DE00000031B8A9BB203F00803002B1AD04FF4A8
:101DF0008063C4F200034FF48062C4F20002128ACE
:101E000092B222F0080292B21A824FF44063C4F2F6
:101E100002034FF44062C4F2020251694FF6FB72B2
:101E20000A405A614FF48063C4F200031B8A9BB2DC
:101E300003F00403002B1AD04FF48063C4F20003B4
:101E40004FF48062C4F20002128A92B222F00402BD
:101E500092B21A824FF44063C4F202034FF440621C
:101E6000C4F2020251694FF6FD720A405A614FF402
:101E70008063C4F200031B8A9BB203F00203002BB1
:101E80001AD04FF48063C4F200034FF48062C4F2AE
:101E90000002128A92B222F0020292B21A824FF427
:101EA0004063C4F202034FF44062C4F2020251697B
:101EB0004FF6FE720A405A614FF48063C4F2000389
:101EC0001B8A9BB203F00103002B19D04FF48063EF
:101ED000C4F200034FF48062C4F20002128A92B28C
:101EE00022F0010292B21A824FF44063C4F202035C
:101EF0004FF44062C4F20202526942F00F025A618A
:101F0000BD4680BC704700BF80B483B000AF78602E
:101F10000B46FB707B68FA781A704FF00103184685
:101F200007F10C07BD4680BC704700BF80B485B088
:101F300000AF786039604FF00003FB600FE03B6852
:101F40001A787B681A707B6803F101037B603B6839
:101F500003F101033B60FB6803F10103FB603B6895
:101F60001B78002BEBD1FB68184607F11407BD4620
:101F700080BC704780B586B000AFF8607A603B6087
:101F80000B46FB724FF000037B617B6803F1FF336C
:101F90007B603B68092B25D93A684CF6CD43CCF6DB
:101FA000CC43A3FB02134FEAD303FA7AF868114635
:101FB0007A68FFF7DFFF78617B69FA68D318FB6006
:101FC00013E0FB7AF8681946FFF79EFFFB6803F100
:101FD0000103FB607B6903F101037B617B6803F113
:101FE000FF337B607B68002BEBDC39684CF6CD431C
:101FF000CCF6CC43A3FB01234FEAD30213464FEAAE
:1020000083039B184FEA4303CA1AD3B203F1300388
:10201000DBB2F8681946FFF777FF03467A69D318F1
:102020007B617B69184607F11807BD4680BD00BF7C
:1020300080B586B000AFF8607A603B600B46FB72FB
:102040004FF000037B613B68002B04DA3B68C3F16F
:1020500000033B6101E03B683B617B6803F1FF33B8
:102060007B603B69092B2AD93B68002B12DA3A695D
:102070004CF6CD43CCF6CC43A3FB02134FEAD3037B
:10208000C3F10003FA7AF86811467A68FFF7D0FFC7
:1020900078610FE03A694CF6CD43CCF6CC43A3FB14
:1020A00002134FEAD303FA7AF86811467A68FFF709
:1020B000BFFF78617B69FA68D318FB602BE03B684F
:1020C000002B15DA7B6803F1FF337B6010E0FB7AAD
:1020D000F8681946FFF718FFFB6803F10103FB607E
:1020E0007B6903F101037B617B6803F1FF337B6054
:1020F0007B68002BEBDC3B68002B0CDAF8684FF0B8
:102100002D01FFF701FF03467A69D3187B61FB6855
:1021100003F10103FB6039694CF6CD43CCF6CC43A7
:10212000A3FB01234FEAD30213464FEA83039B1814
:102130004FEA4303CA1AD3B203F13003DBB2F868A3
:102140001946FFF7E1FE03467A69D3187B617B6984
:10215000184607F11807BD4680BD00BF80B588B09E
:1021600002AFF8607A600A46FA72BB724FF0000361
:102170007B617B6803F1FF337B603B6A4FEA13139B
:10218000002B24D03B6A4FEA1311FA7ABB7A0091F4
:10219000F86811467A68FFF7E1FF03467A69D318B9
:1021A0007B617B69FA68D318FB6013E0FB7AF868FF
:1021B0001946FFF7A9FEFB6803F10103FB607B6989
:1021C00003F101037B617B6803F1FF337B607B6874
:1021D000002BEBDC3B6A03F00F03092B0CD83B6AA6
:1021E000DBB203F00F03DBB203F13003DBB2F868BC
:1021F0001946FFF789FE1BE0BB7A002B0CD03B6A27
:10220000DBB203F00F03DBB203F13703DBB2F86894
:102210001946FFF779FE0BE03B6ADBB203F00F03D0
:10222000DBB203F15703DBB2F8681946FFF76CFE27
:102230007B6903F101037B617B69184607F118078D
:10224000BD4680BD80B58AB002AFF860B9607A60E3
:102250003B604FF00003BB614FF000037B61FB6804
:10226000002B00F01C81FB684FF000021A7016E191
:102270007B681B78252B10D07B681A78FB681A7056
:10228000FB6803F10103FB607B6803F101037B60E2
:102290007B6903F101037B6102E17B6803F10103C8
:1022A0001B78252B10D1FB684FF025021A70FB68B4
:1022B00003F10103FB607B6803F102037B607B6930
:1022C00003F101037B61EBE04FF02003FB774FF05C
:1022D0000003BB777B6803F101037B607B681B789D
:1022E000302B1BD14FF03003FB777B6803F10103E8
:1022F0007B6013E0BB7F1A464FEA8202D3184FEA95
:102300004303DAB27B681B78D318DBB2A3F1300346
:10231000BB777B6803F101037B6000E000BF7B6853
:102320001B782F2B03D97B681B78392BE2D9BA7F16
:102330007B69D3181A46BB689A4205D9BB68DAB2E2
:102340007B69DBB2D31ABB777B681B78A3F1580398
:10235000202B00F2948001A252F823F031240008CF
:102360007F2400087F2400087F2400087F240008C1
:102370007F2400087F2400087F2400087F240008B1
:102380007F2400087F24000867240008E123000858
:102390007F2400087F2400087F2400087F24000891
:1023A000E12300087F2400087F2400087F24000820
:1023B0007F2400087F2400087F2400087F24000871
:1023C0007F2400087F240008512400087F2400088F
:1023D000F92300087F2400087F2400081124000846
:1023E000BA7F3B6803F1040139601B68F97FF86824
:1023F000FFF71EFEB86145E0BA7F3B6803F10401B8
:1024000039601B68F97FF868FFF7B4FDB86139E0FF
:10241000BA7F3B6803F1040139601968FB7F0091C2
:10242000F86819464FF00003FFF798FEB86129E0FD
:10243000BA7F3B6803F1040139601968FB7F0091A2
:10244000F86819464FF00103FFF788FEB86119E0FC
:102450003B6803F104023A601B68F8681946FFF70D
:1024600065FDB8610EE03B6803F104023A601B6849
:10247000DBB2F8681946FFF747FDB86102E04FF09C
:10248000FF332CE07B6803F101037B60BB69FA68D2
:10249000D318FB607A69BB69D3187B6100E000BF89
:1024A0007B681B78002B04D07A69BB689A42FFF4E2
:1024B000DFAE7A69BB689A4204D2FB684FF0000233
:1024C0001A700BE0FB6803F1FF33FB60FB684FF011
:1024D00000021A707B6903F1FF337B617B69184648
:1024E00007F12007BD4680BD80B584B000AFF8601D
:1024F000B9607A60F8684FF06401BA687B68FFF7EA
:10250000A1FE0346184607F11007BD4680BD00BF77
:102510000EB480B585B000AF786007F12003BB60D2
:102520007868F969BA68FFF7DFFFF860FB6818465A
:1025300007F11407BD46BDE8804003B0704700BFF7
:1025400080B500AF4FF46053C4F202034FF4605201
:10255000C4F20202126842F001021A604FF46053A2
:10256000C4F202034FF000029A604FF46053C4F2C9
:1025700002034FF46052C4F20202126822F0847225
:1025800022F480321A604FF46053C4F2020343F223
:102590001002C2F200425A604FF46053C4F20203C8
:1025A0004FF46052C4F20202126822F480221A60D0
:1025B0004FF46053C4F202034FF00002DA6000F0FF
:1025C000C1F84FF46D43CEF200034FF000629A6001
:1025D00080BD00BF80B487B000AF4FF000033B6107
:1025E0004FF000037B614FF00203FB604FF00003EC
:1025F000BB604FF002037B604FF46053C4F20203F0
:102600009B6803F00C033B613B69042B0DD0082B46
:1026100015D0002B69D140F23C03C2F200034FF405
:102620001052C0F2F4021A6069E040F23C03C2F2B8
:1026300000034FF49052C0F27A021A605FE04FF448
:102640006053C4F202035B6803F480034FEA9353C0
:10265000BB604FF46053C4F202035B6803F03F03B6
:102660007B60BB68002B14D04FF49053C0F27A0308
:102670007A68B3FBF2F24FF46053C4F20203596874
:1026800047F6C0730B404FEA931303FB02F37B61E1
:1026900013E04FF41053C0F2F4037A68B3FBF2F284
:1026A0004FF46053C4F20203596847F6C0730B40FD
:1026B0004FEA931303FB02F37B614FF46053C4F2C0
:1026C00002035B6803F440334FEA134303F1010351
:1026D0004FEA4303FB607A69FB68B2FBF3F240F216
:1026E0003C03C2F200031A6009E040F23C03C2F26C
:1026F00000034FF41052C0F2F4021A6000BF4FF40E
:102700006053C4F202039B6803F0F0034FEA131214
:1027100040F24003C2F200039B5CDBB23B6140F23B
:102720003C03C2F200031A683B6922FA03F240F24A
:102730003C03C2F200031A6007F11C07BD4680BCCF
:10274000704700BF80B483B000AF4FF000037B60E0
:102750004FF000033B604FF46053C4F202034FF4A8
:102760006052C4F20202126842F480321A604FF4DE
:102770006053C4F202031B6803F400333B607B68C0
:1027800003F101037B603B68002B03D17B68B3F549
:10279000A06FECD14FF46053C4F202031B6803F442
:1027A0000033002B03D04FF001033B6002E04FF0F9
:1027B00000033B603B68012B40F082804FF4605384
:1027C000C4F202034FF46052C4F20202126C42F0EF
:1027D00080521A644FF4E043C4F200034FF4E04225
:1027E000C4F20002126842F480421A604FF460534F
:1027F000C4F202034FF46052C4F2020292689A607B
:102800004FF46053C4F202034FF46052C4F2020268
:10281000926842F400429A604FF46053C4F202039B
:102820004FF46052C4F20202926842F4A0529A60DD
:102830004FF46053C4F2020345F20802C0F2407242
:102840005A604FF46053C4F202034FF46052C4F272
:102850000202126842F080721A6000BF4FF46053A7
:10286000C4F202031B6803F00073002BF6D04FF490
:102870007053C4F2020340F205621A604FF46053D1
:10288000C4F202034FF46052C4F20202926822F0D2
:1028900003029A604FF46053C4F202034FF4605293
:1028A000C4F20202926842F002029A6000BF4FF442
:1028B0006053C4F202039B6803F00C03082BF6D1AB
:1028C00007F10C07BD4680BC704700BF80F0004098
:1028D00002E000BF81F0004142001FBF5FEA4103F8
:1028E00092EA030F7FEA226C7FEA236C6AD04FEAF8
:1028F0001262D2EB1363C1BFD2184140484041403D
:10290000B8BF5B42192B88BF704710F0004F40F4EE
:10291000000020F07F4018BF404211F0004F41F40A
:10292000000121F07F4118BF494292EA030F3FD0D6
:10293000A2F1010241FA03FC10EB0C00C3F12003E9
:1029400001FA03F100F0004302D5494260EB400078
:10295000B0F5000F13D3B0F1807F06D340084FEAE3
:10296000310102F10102FE2A51D2B1F1004F40EBD8
:10297000C25008BF20F0010040EA03007047490040
:1029800040EB000010F4000FA2F10102EDD1B0FA0B
:1029900080FCACF1080CB2EB0C0200FA0CF0AABF00
:1029A00000EBC25052421843BCBFD040184370479E
:1029B00092F0000F81F4000106BF80F400000132A4
:1029C000013BB5E74FEA41037FEA226C18BF7FEA7B
:1029D000236C21D092EA030F04D092F0000F08BFBD
:1029E0000846704790EA010F1CBF0020704712F0A4
:1029F0007F4F04D1400028BF40F00040704712F1E3
:102A000000723CBF00F50000704700F0004343F047
:102A1000FE4040F4000070477FEA226216BF08467D
:102A20007FEA23630146420206BF5FEA412390EA40
:102A3000010F40F4800070474FF0000304E000BF36
:102A400010F0004348BF40425FEA000C08BF7047E7
:102A500043F0964301464FF000001CE050EA0102AB
:102A600008BF70474FF000030AE000BF50EA0102C0
:102A700008BF704711F0004302D5404261EB4101AD
:102A80005FEA010C02BF84460146002043F0B643D2
:102A900008BFA3F18053A3F50003BCFA8CF2083AF7
:102AA000A3EBC25310DB01FA02FC634400FA02FC00
:102AB000C2F12002BCF1004F20FA02F243EB020007
:102AC00008BF20F00100704702F1200201FA02FC69
:102AD000C2F1200250EA4C0021FA02F243EB02005C
:102AE00008BF20EADC7070474FF0FF0C1CEAD052A0
:102AF0001EBF1CEAD15392EA0C0F93EA0C0F6FD061
:102B00001A4480EA010C400218BF5FEA41211ED03E
:102B10004FF0006343EA501043EA5111A0FB01312A
:102B20000CF00040B1F5000F3EBF490041EAD371FF
:102B30005B0040EA010062F17F02FD2A1DD8B3F17B
:102B4000004F40EBC25008BF20F00100704790F0EA
:102B5000000F0CF0004C08BF49024CEA502040EA3C
:102B600051207F3AC2BFD2F1FF0340EAC250704702
:102B700040F400004FF00003013A5DDC12F1190F40
:102B8000DCBF00F000407047C2F10002410021FAB2
:102B900002F1C2F1200200FA02FC5FEA310040F1CA
:102BA000000053EA4C0308BF20EADC70704792F043
:102BB000000F00F0004C02BF400010F4000F013A7B
:102BC000F9D040EA0C0093F0000F01F0004C02BF76
:102BD000490011F4000F013BF9D041EA0C018FE7E5
:102BE0000CEAD15392EA0C0F18BF93EA0C0F0AD0EB
:102BF00030F0004C18BF31F0004CD8D180EA010011
:102C000000F00040704790F0000F17BF90F0004FA9
:102C1000084691F0000F91F0004F14D092EA0C0F8B
:102C200001D142020FD193EA0C0F03D14B0218BF1E
:102C3000084608D180EA010000F0004040F0FE4064
:102C400040F40000704740F0FE4040F44000704700
:102C50004FF0FF0C1CEAD0521EBF1CEAD15392EA7F
:102C60000C0F93EA0C0F69D0A2EB030280EA010C6F
:102C700049024FEA402037D04FF0805343EA111108
:102C800043EA10130CF000408B4238BF5B0042F166
:102C90007D024FF4000C8B4224BF5B1A40EA0C000B
:102CA000B3EB510F24BFA3EB510340EA5C00B3EB3D
:102CB000910F24BFA3EB910340EA9C00B3EBD10F2B
:102CC00024BFA3EBD10340EADC001B0118BF5FEA7D
:102CD0001C1CE0D1FD2A3FF650AF8B4240EBC250A6
:102CE00008BF20F0010070470CF0004C4CEA502067
:102CF0007F32C2BFD2F1FF0340EAC250704740F4B6
:102D000000004FF00003013A37E792F0000F00F0A7
:102D1000004C02BF400010F4000F013AF9D040EA25
:102D20000C0093F0000F01F0004C02BF490011F4B9
:102D3000000F013BF9D041EA0C0195E70CEAD153B1
:102D400092EA0C0F08D142027FF47DAF93EA0C0F98
:102D50007FF470AF084676E793EA0C0F04D14B027C
:102D60003FF44CAF08466EE730F0004C18BF31F02E
:102D7000004CCAD130F000427FF45CAF31F0004328
:102D80007FF43CAF5FE700BF4FEA4002B2F1FE4F75
:102D90000FD34FF09E03B3EB12620DD94FEA00231D
:102DA00043F0004310F0004F23FA02F018BF4042F6
:102DB00070474FF00000704712F1610F01D14202DD
:102DC00005D110F0004008BF6FF0004070474FF091
:102DD0000000704768656C6C6F000000256400009F
:042DE00065727200A6
:102DE40001000000010000000100000001000000DB
:102DF40005000000010000001900000001000000AF
:102E0400280000000000803F0000003F0AD7233C58
:102E14000000803F0000803FCDCCCC3D007A030A07
:102E24000000000000000000010203040607080976
:0400000508000000EF
:00000001FF
